{
  "_format": "hh-sol-artifact-1",
  "contractName": "Wallet",
  "sourceName": "contracts/Wallet.sol",
  "abi": [
    {
      "inputs": [
        {
          "internalType": "address",
          "name": "verifierAddress",
          "type": "address"
        }
      ],
      "stateMutability": "nonpayable",
      "type": "constructor"
    },
    {
      "inputs": [
        {
          "internalType": "address",
          "name": "",
          "type": "address"
        }
      ],
      "name": "balances",
      "outputs": [
        {
          "internalType": "uint256",
          "name": "",
          "type": "uint256"
        }
      ],
      "stateMutability": "view",
      "type": "function"
    },
    {
      "inputs": [],
      "name": "deposit",
      "outputs": [],
      "stateMutability": "payable",
      "type": "function"
    },
    {
      "inputs": [],
      "name": "getBalance",
      "outputs": [
        {
          "internalType": "uint256",
          "name": "",
          "type": "uint256"
        }
      ],
      "stateMutability": "view",
      "type": "function"
    },
    {
      "inputs": [
        {
          "internalType": "address",
          "name": "recipient",
          "type": "address"
        },
        {
          "internalType": "uint256",
          "name": "amount",
          "type": "uint256"
        },
        {
          "components": [
            {
              "internalType": "uint256",
              "name": "X",
              "type": "uint256"
            },
            {
              "internalType": "uint256",
              "name": "Y",
              "type": "uint256"
            }
          ],
          "internalType": "struct Pairing.G1Point",
          "name": "a",
          "type": "tuple"
        },
        {
          "components": [
            {
              "internalType": "uint256[2]",
              "name": "X",
              "type": "uint256[2]"
            },
            {
              "internalType": "uint256[2]",
              "name": "Y",
              "type": "uint256[2]"
            }
          ],
          "internalType": "struct Pairing.G2Point",
          "name": "b",
          "type": "tuple"
        },
        {
          "components": [
            {
              "internalType": "uint256",
              "name": "X",
              "type": "uint256"
            },
            {
              "internalType": "uint256",
              "name": "Y",
              "type": "uint256"
            }
          ],
          "internalType": "struct Pairing.G1Point",
          "name": "c",
          "type": "tuple"
        },
        {
          "internalType": "uint256[2]",
          "name": "input",
          "type": "uint256[2]"
        }
      ],
      "name": "sendWithZKP",
      "outputs": [],
      "stateMutability": "nonpayable",
      "type": "function"
    },
    {
      "inputs": [],
      "name": "verifier",
      "outputs": [
        {
          "internalType": "contract Verifier",
          "name": "",
          "type": "address"
        }
      ],
      "stateMutability": "view",
      "type": "function"
    },
    {
      "inputs": [
        {
          "internalType": "uint256",
          "name": "amount",
          "type": "uint256"
        },
        {
          "components": [
            {
              "internalType": "uint256",
              "name": "X",
              "type": "uint256"
            },
            {
              "internalType": "uint256",
              "name": "Y",
              "type": "uint256"
            }
          ],
          "internalType": "struct Pairing.G1Point",
          "name": "a",
          "type": "tuple"
        },
        {
          "components": [
            {
              "internalType": "uint256[2]",
              "name": "X",
              "type": "uint256[2]"
            },
            {
              "internalType": "uint256[2]",
              "name": "Y",
              "type": "uint256[2]"
            }
          ],
          "internalType": "struct Pairing.G2Point",
          "name": "b",
          "type": "tuple"
        },
        {
          "components": [
            {
              "internalType": "uint256",
              "name": "X",
              "type": "uint256"
            },
            {
              "internalType": "uint256",
              "name": "Y",
              "type": "uint256"
            }
          ],
          "internalType": "struct Pairing.G1Point",
          "name": "c",
          "type": "tuple"
        },
        {
          "internalType": "uint256[2]",
          "name": "input",
          "type": "uint256[2]"
        }
      ],
      "name": "withdraw",
      "outputs": [],
      "stateMutability": "nonpayable",
      "type": "function"
    }
  ],
  "bytecode": "0x608060405234801561001057600080fd5b5060405162000ff138038062000ff1833981810160405281019061003491906100de565b80600160006101000a81548173ffffffffffffffffffffffffffffffffffffffff021916908373ffffffffffffffffffffffffffffffffffffffff1602179055505061010b565b600080fd5b600073ffffffffffffffffffffffffffffffffffffffff82169050919050565b60006100ab82610080565b9050919050565b6100bb816100a0565b81146100c657600080fd5b50565b6000815190506100d8816100b2565b92915050565b6000602082840312156100f4576100f361007b565b5b6000610102848285016100c9565b91505092915050565b610ed6806200011b6000396000f3fe6080604052600436106100555760003560e01c806312065fe01461005a57806327e235e3146100855780632b7ac3f3146100c25780636fcf2c9f146100ed578063b423289614610116578063d0e30db01461013f575b600080fd5b34801561006657600080fd5b5061006f610149565b60405161007c919061068e565b60405180910390f35b34801561009157600080fd5b506100ac60048036038101906100a79190610716565b61018f565b6040516100b9919061068e565b60405180910390f35b3480156100ce57600080fd5b506100d76101a7565b6040516100e491906107a2565b60405180910390f35b3480156100f957600080fd5b50610114600480360381019061010f91906109d5565b6101cd565b005b34801561012257600080fd5b5061013d60048036038101906101389190610a65565b6103fd565b005b61014761061e565b005b60008060003373ffffffffffffffffffffffffffffffffffffffff1673ffffffffffffffffffffffffffffffffffffffff16815260200190815260200160002054905090565b60006020528060005260406000206000915090505481565b600160009054906101000a900473ffffffffffffffffffffffffffffffffffffffff1681565b846000803373ffffffffffffffffffffffffffffffffffffffff1673ffffffffffffffffffffffffffffffffffffffff16815260200190815260200160002054101561024e576040517f08c379a000000000000000000000000000000000000000000000000000000000815260040161024590610b3f565b60405180910390fd5b60006040518060600160405280868152602001858152602001848152509050600160009054906101000a900473ffffffffffffffffffffffffffffffffffffffff1673ffffffffffffffffffffffffffffffffffffffff166343cd76fc82846040518363ffffffff1660e01b81526004016102ca929190610d0d565b602060405180830381865afa1580156102e7573d6000803e3d6000fd5b505050506040513d601f19601f8201168201806040525081019061030b9190610d70565b61034a576040517f08c379a000000000000000000000000000000000000000000000000000000000815260040161034190610de9565b60405180910390fd5b856000803373ffffffffffffffffffffffffffffffffffffffff1673ffffffffffffffffffffffffffffffffffffffff16815260200190815260200160002060008282546103989190610e38565b92505081905550856000808973ffffffffffffffffffffffffffffffffffffffff1673ffffffffffffffffffffffffffffffffffffffff16815260200190815260200160002060008282546103ed9190610e6c565b9250508190555050505050505050565b846000803373ffffffffffffffffffffffffffffffffffffffff1673ffffffffffffffffffffffffffffffffffffffff16815260200190815260200160002054101561047e576040517f08c379a000000000000000000000000000000000000000000000000000000000815260040161047590610b3f565b60405180910390fd5b60006040518060600160405280868152602001858152602001848152509050600160009054906101000a900473ffffffffffffffffffffffffffffffffffffffff1673ffffffffffffffffffffffffffffffffffffffff166343cd76fc82846040518363ffffffff1660e01b81526004016104fa929190610d0d565b602060405180830381865afa158015610517573d6000803e3d6000fd5b505050506040513d601f19601f8201168201806040525081019061053b9190610d70565b61057a576040517f08c379a000000000000000000000000000000000000000000000000000000000815260040161057190610de9565b60405180910390fd5b856000803373ffffffffffffffffffffffffffffffffffffffff1673ffffffffffffffffffffffffffffffffffffffff16815260200190815260200160002060008282546105c89190610e38565b925050819055503373ffffffffffffffffffffffffffffffffffffffff166108fc879081150290604051600060405180830381858888f19350505050158015610615573d6000803e3d6000fd5b50505050505050565b346000803373ffffffffffffffffffffffffffffffffffffffff1673ffffffffffffffffffffffffffffffffffffffff168152602001908152602001600020600082825461066c9190610e6c565b92505081905550565b6000819050919050565b61068881610675565b82525050565b60006020820190506106a3600083018461067f565b92915050565b6000604051905090565b600080fd5b600073ffffffffffffffffffffffffffffffffffffffff82169050919050565b60006106e3826106b8565b9050919050565b6106f3816106d8565b81146106fe57600080fd5b50565b600081359050610710816106ea565b92915050565b60006020828403121561072c5761072b6106b3565b5b600061073a84828501610701565b91505092915050565b6000819050919050565b600061076861076361075e846106b8565b610743565b6106b8565b9050919050565b600061077a8261074d565b9050919050565b600061078c8261076f565b9050919050565b61079c81610781565b82525050565b60006020820190506107b76000830184610793565b92915050565b6107c681610675565b81146107d157600080fd5b50565b6000813590506107e3816107bd565b92915050565b600080fd5b6000601f19601f8301169050919050565b7f4e487b7100000000000000000000000000000000000000000000000000000000600052604160045260246000fd5b610837826107ee565b810181811067ffffffffffffffff82111715610856576108556107ff565b5b80604052505050565b60006108696106a9565b9050610875828261082e565b919050565b6000604082840312156108905761088f6107e9565b5b61089a604061085f565b905060006108aa848285016107d4565b60008301525060206108be848285016107d4565b60208301525092915050565b600080fd5b600067ffffffffffffffff8211156108ea576108e96107ff565b5b602082029050919050565b600080fd5b600061090d610908846108cf565b61085f565b90508060208402830185811115610927576109266108f5565b5b835b81811015610950578061093c88826107d4565b845260208401935050602081019050610929565b5050509392505050565b600082601f83011261096f5761096e6108ca565b5b600261097c8482856108fa565b91505092915050565b60006080828403121561099b5761099a6107e9565b5b6109a5604061085f565b905060006109b58482850161095a565b60008301525060406109c98482850161095a565b60208301525092915050565b60008060008060008061018087890312156109f3576109f26106b3565b5b6000610a0189828a01610701565b9650506020610a1289828a016107d4565b9550506040610a2389828a0161087a565b9450506080610a3489828a01610985565b935050610100610a4689828a0161087a565b925050610140610a5889828a0161095a565b9150509295509295509295565b60008060008060006101608688031215610a8257610a816106b3565b5b6000610a90888289016107d4565b9550506020610aa18882890161087a565b9450506060610ab288828901610985565b93505060e0610ac38882890161087a565b925050610120610ad58882890161095a565b9150509295509295909350565b600082825260208201905092915050565b7f496e73756666696369656e742062616c616e6365000000000000000000000000600082015250565b6000610b29601483610ae2565b9150610b3482610af3565b602082019050919050565b60006020820190508181036000830152610b5881610b1c565b9050919050565b610b6881610675565b82525050565b604082016000820151610b846000850182610b5f565b506020820151610b976020850182610b5f565b50505050565b600060029050919050565b600081905092915050565b6000819050919050565b6000610bc98383610b5f565b60208301905092915050565b6000602082019050919050565b610beb81610b9d565b610bf58184610ba8565b9250610c0082610bb3565b8060005b83811015610c31578151610c188782610bbd565b9650610c2383610bd5565b925050600181019050610c04565b505050505050565b608082016000820151610c4f6000850182610be2565b506020820151610c626040850182610be2565b50505050565b61010082016000820151610c7f6000850182610b6e565b506020820151610c926040850182610c39565b506040820151610ca560c0850182610b6e565b50505050565b600081905092915050565b610cbf81610b9d565b610cc98184610cab565b9250610cd482610bb3565b8060005b83811015610d05578151610cec8782610bbd565b9650610cf783610bd5565b925050600181019050610cd8565b505050505050565b600061014082019050610d236000830185610c68565b610d31610100830184610cb6565b9392505050565b60008115159050919050565b610d4d81610d38565b8114610d5857600080fd5b50565b600081519050610d6a81610d44565b92915050565b600060208284031215610d8657610d856106b3565b5b6000610d9484828501610d5b565b91505092915050565b7f5a4b5020566572696669636174696f6e204661696c6564000000000000000000600082015250565b6000610dd3601783610ae2565b9150610dde82610d9d565b602082019050919050565b60006020820190508181036000830152610e0281610dc6565b9050919050565b7f4e487b7100000000000000000000000000000000000000000000000000000000600052601160045260246000fd5b6000610e4382610675565b9150610e4e83610675565b9250828203905081811115610e6657610e65610e09565b5b92915050565b6000610e7782610675565b9150610e8283610675565b9250828201905080821115610e9a57610e99610e09565b5b9291505056fea264697066735822122053255c93395a2808fe61d68bf0bfd471c9e224f215ee13a102a68d6285ea6b6564736f6c63430008140033",
  "linkReferences": {},
  "deployedLinkReferences": {}
}